{
    "_format": "hh-sol-artifact-1",
    "contractName": "ProfilePayments",
    "sourceName": "contracts/ProfilePayments.sol",
    "abi": [
        {
            "inputs": [],
            "stateMutability": "nonpayable",
            "type": "constructor"
        },
        {
            "inputs": [],
            "name": "OnlyOwner",
            "type": "error"
        },
        {
            "anonymous": false,
            "inputs": [
                {
                    "indexed": false,
                    "internalType": "address",
                    "name": "from",
                    "type": "address"
                },
                {
                    "indexed": false,
                    "internalType": "address",
                    "name": "receiver",
                    "type": "address"
                },
                {
                    "indexed": false,
                    "internalType": "uint256",
                    "name": "amount",
                    "type": "uint256"
                },
                {
                    "indexed": false,
                    "internalType": "string",
                    "name": "message",
                    "type": "string"
                },
                {
                    "indexed": false,
                    "internalType": "uint256",
                    "name": "timestamp",
                    "type": "uint256"
                }
            ],
            "name": "Transfer",
            "type": "event"
        },
        {
            "stateMutability": "payable",
            "type": "fallback"
        },
        {
            "inputs": [
                {
                    "internalType": "address payable",
                    "name": "receiver",
                    "type": "address"
                },
                {
                    "internalType": "uint256",
                    "name": "amount",
                    "type": "uint256"
                },
                {
                    "internalType": "string",
                    "name": "message",
                    "type": "string"
                }
            ],
            "name": "addToBlockchain",
            "outputs": [],
            "stateMutability": "nonpayable",
            "type": "function"
        },
        {
            "inputs": [],
            "name": "emergencyWithdraw",
            "outputs": [],
            "stateMutability": "nonpayable",
            "type": "function"
        },
        {
            "inputs": [],
            "name": "getAllTransactions",
            "outputs": [
                {
                    "components": [
                        {
                            "internalType": "address",
                            "name": "sender",
                            "type": "address"
                        },
                        {
                            "internalType": "address",
                            "name": "receiver",
                            "type": "address"
                        },
                        {
                            "internalType": "uint256",
                            "name": "amount",
                            "type": "uint256"
                        },
                        {
                            "internalType": "string",
                            "name": "message",
                            "type": "string"
                        },
                        {
                            "internalType": "uint256",
                            "name": "timestamp",
                            "type": "uint256"
                        }
                    ],
                    "internalType": "struct ProfilePayments.TransferStruct[]",
                    "name": "",
                    "type": "tuple[]"
                }
            ],
            "stateMutability": "view",
            "type": "function"
        },
        {
            "inputs": [],
            "name": "getBalance",
            "outputs": [
                {
                    "internalType": "uint256",
                    "name": "",
                    "type": "uint256"
                }
            ],
            "stateMutability": "view",
            "type": "function"
        },
        {
            "inputs": [],
            "name": "getContractOwner",
            "outputs": [
                {
                    "internalType": "address",
                    "name": "",
                    "type": "address"
                }
            ],
            "stateMutability": "view",
            "type": "function"
        },
        {
            "inputs": [],
            "name": "getTransactionCount",
            "outputs": [
                {
                    "internalType": "uint256",
                    "name": "",
                    "type": "uint256"
                }
            ],
            "stateMutability": "view",
            "type": "function"
        },
        {
            "inputs": [],
            "name": "isStopped",
            "outputs": [
                {
                    "internalType": "bool",
                    "name": "",
                    "type": "bool"
                }
            ],
            "stateMutability": "view",
            "type": "function"
        },
        {
            "inputs": [],
            "name": "resumeContract",
            "outputs": [],
            "stateMutability": "nonpayable",
            "type": "function"
        },
        {
            "inputs": [],
            "name": "selfDestruct",
            "outputs": [],
            "stateMutability": "nonpayable",
            "type": "function"
        },
        {
            "inputs": [],
            "name": "stopContract",
            "outputs": [],
            "stateMutability": "nonpayable",
            "type": "function"
        },
        {
            "inputs": [
                {
                    "internalType": "address",
                    "name": "newOwner",
                    "type": "address"
                }
            ],
            "name": "transferOwnership",
            "outputs": [],
            "stateMutability": "nonpayable",
            "type": "function"
        },
        {
            "inputs": [
                {
                    "internalType": "uint256",
                    "name": "amount",
                    "type": "uint256"
                }
            ],
            "name": "withdraw",
            "outputs": [],
            "stateMutability": "nonpayable",
            "type": "function"
        },
        {
            "stateMutability": "payable",
            "type": "receive"
        }
    ],
    "bytecode": "0x608060405260008060146101000a81548160ff02191690831515021790555034801561002a57600080fd5b5061003a3361003f60201b60201c565b610082565b806000806101000a81548173ffffffffffffffffffffffffffffffffffffffff021916908373ffffffffffffffffffffffffffffffffffffffff16021790555050565b61140c806100916000396000f3fe6080604052600436106100ab5760003560e01c8063442890d511610064578063442890d5146101a05780639cb8a26a146101cb578063c4bc5da5146101e2578063db2e21bc146101f9578063eb12da4a14610210578063f2fde38b14610239576100b2565b806312065fe0146100b457806312253a6c146100df57806327506f53146100f65780632e1a7d4d146101215780632e7700f01461014a5780633f683b6a14610175576100b2565b366100b257005b005b3480156100c057600080fd5b506100c9610262565b6040516100d69190610bd5565b60405180910390f35b3480156100eb57600080fd5b506100f461026a565b005b34801561010257600080fd5b5061010b6102f3565b6040516101189190610e11565b60405180910390f35b34801561012d57600080fd5b5061014860048036038101906101439190610e73565b6104a4565b005b34801561015657600080fd5b5061015f6105e1565b60405161016c9190610bd5565b60405180910390f35b34801561018157600080fd5b5061018a6105eb565b6040516101979190610ebb565b60405180910390f35b3480156101ac57600080fd5b506101b56105fe565b6040516101c29190610ee5565b60405180910390f35b3480156101d757600080fd5b506101e0610627565b005b3480156101ee57600080fd5b506101f76106e5565b005b34801561020557600080fd5b5061020e61076d565b005b34801561021c57600080fd5b5061023760048036038101906102329190611073565b6108c2565b005b34801561024557600080fd5b50610260600480360381019061025b919061110e565b610a5e565b005b600047905090565b6102726105fe565b73ffffffffffffffffffffffffffffffffffffffff163373ffffffffffffffffffffffffffffffffffffffff16146102d6576040517f5fc483c500000000000000000000000000000000000000000000000000000000815260040160405180910390fd5b6001600060146101000a81548160ff021916908315150217905550565b60606002805480602002602001604051908101604052809291908181526020016000905b8282101561049b57838290600052602060002090600502016040518060a00160405290816000820160009054906101000a900473ffffffffffffffffffffffffffffffffffffffff1673ffffffffffffffffffffffffffffffffffffffff1673ffffffffffffffffffffffffffffffffffffffff1681526020016001820160009054906101000a900473ffffffffffffffffffffffffffffffffffffffff1673ffffffffffffffffffffffffffffffffffffffff1673ffffffffffffffffffffffffffffffffffffffff168152602001600282015481526020016003820180546104009061116a565b80601f016020809104026020016040519081016040528092919081815260200182805461042c9061116a565b80156104795780601f1061044e57610100808354040283529160200191610479565b820191906000526020600020905b81548152906001019060200180831161045c57829003601f168201915b5050505050815260200160048201548152505081526020019060010190610317565b50505050905090565b6104ac6105fe565b73ffffffffffffffffffffffffffffffffffffffff163373ffffffffffffffffffffffffffffffffffffffff1614610510576040517f5fc483c500000000000000000000000000000000000000000000000000000000815260040160405180910390fd5b60008060009054906101000a900473ffffffffffffffffffffffffffffffffffffffff1673ffffffffffffffffffffffffffffffffffffffff1682604051610557906111cd565b60006040518083038185875af1925050503d8060008114610594576040519150601f19603f3d011682016040523d82523d6000602084013e610599565b606091505b50509050806105dd576040517f08c379a00000000000000000000000000000000000000000000000000000000081526004016105d49061123f565b60405180910390fd5b5050565b6000600154905090565b600060149054906101000a900460ff1681565b60008060009054906101000a900473ffffffffffffffffffffffffffffffffffffffff16905090565b600060149054906101000a900460ff1661064057600080fd5b6106486105fe565b73ffffffffffffffffffffffffffffffffffffffff163373ffffffffffffffffffffffffffffffffffffffff16146106ac576040517f5fc483c500000000000000000000000000000000000000000000000000000000815260040160405180910390fd5b60008054906101000a900473ffffffffffffffffffffffffffffffffffffffff1673ffffffffffffffffffffffffffffffffffffffff16ff5b6106ed6105fe565b73ffffffffffffffffffffffffffffffffffffffff163373ffffffffffffffffffffffffffffffffffffffff1614610751576040517f5fc483c500000000000000000000000000000000000000000000000000000000815260040160405180910390fd5b60008060146101000a81548160ff021916908315150217905550565b6107756105fe565b73ffffffffffffffffffffffffffffffffffffffff163373ffffffffffffffffffffffffffffffffffffffff16146107d9576040517f5fc483c500000000000000000000000000000000000000000000000000000000815260040160405180910390fd5b600060149054906101000a900460ff166107f257600080fd5b60008060009054906101000a900473ffffffffffffffffffffffffffffffffffffffff1673ffffffffffffffffffffffffffffffffffffffff1647604051610839906111cd565b60006040518083038185875af1925050503d8060008114610876576040519150601f19603f3d011682016040523d82523d6000602084013e61087b565b606091505b50509050806108bf576040517f08c379a00000000000000000000000000000000000000000000000000000000081526004016108b69061123f565b60405180910390fd5b50565b60018060008282546108d4919061128e565b9250508190555060026040518060a001604052803373ffffffffffffffffffffffffffffffffffffffff1681526020018573ffffffffffffffffffffffffffffffffffffffff16815260200184815260200183815260200142815250908060018154018082558091505060019003906000526020600020906005020160009091909190915060008201518160000160006101000a81548173ffffffffffffffffffffffffffffffffffffffff021916908373ffffffffffffffffffffffffffffffffffffffff16021790555060208201518160010160006101000a81548173ffffffffffffffffffffffffffffffffffffffff021916908373ffffffffffffffffffffffffffffffffffffffff160217905550604082015181600201556060820151816003019080519060200190610a0d929190610b19565b506080820151816004015550507fc4b32d7ff75a51e487f3cbb5d3202f2efecca1f4c2b987e0039c1d3220b48a833384848442604051610a5195949392919061137c565b60405180910390a1505050565b610a666105fe565b73ffffffffffffffffffffffffffffffffffffffff163373ffffffffffffffffffffffffffffffffffffffff1614610aca576040517f5fc483c500000000000000000000000000000000000000000000000000000000815260040160405180910390fd5b610ad381610ad6565b50565b806000806101000a81548173ffffffffffffffffffffffffffffffffffffffff021916908373ffffffffffffffffffffffffffffffffffffffff16021790555050565b828054610b259061116a565b90600052602060002090601f016020900481019282610b475760008555610b8e565b82601f10610b6057805160ff1916838001178555610b8e565b82800160010185558215610b8e579182015b82811115610b8d578251825591602001919060010190610b72565b5b509050610b9b9190610b9f565b5090565b5b80821115610bb8576000816000905550600101610ba0565b5090565b6000819050919050565b610bcf81610bbc565b82525050565b6000602082019050610bea6000830184610bc6565b92915050565b600081519050919050565b600082825260208201905092915050565b6000819050602082019050919050565b600073ffffffffffffffffffffffffffffffffffffffff82169050919050565b6000610c4782610c1c565b9050919050565b610c5781610c3c565b82525050565b610c6681610bbc565b82525050565b600081519050919050565b600082825260208201905092915050565b60005b83811015610ca6578082015181840152602081019050610c8b565b83811115610cb5576000848401525b50505050565b6000601f19601f8301169050919050565b6000610cd782610c6c565b610ce18185610c77565b9350610cf1818560208601610c88565b610cfa81610cbb565b840191505092915050565b600060a083016000830151610d1d6000860182610c4e565b506020830151610d306020860182610c4e565b506040830151610d436040860182610c5d565b5060608301518482036060860152610d5b8282610ccc565b9150506080830151610d706080860182610c5d565b508091505092915050565b6000610d878383610d05565b905092915050565b6000602082019050919050565b6000610da782610bf0565b610db18185610bfb565b935083602082028501610dc385610c0c565b8060005b85811015610dff5784840389528151610de08582610d7b565b9450610deb83610d8f565b925060208a01995050600181019050610dc7565b50829750879550505050505092915050565b60006020820190508181036000830152610e2b8184610d9c565b905092915050565b6000604051905090565b600080fd5b600080fd5b610e5081610bbc565b8114610e5b57600080fd5b50565b600081359050610e6d81610e47565b92915050565b600060208284031215610e8957610e88610e3d565b5b6000610e9784828501610e5e565b91505092915050565b60008115159050919050565b610eb581610ea0565b82525050565b6000602082019050610ed06000830184610eac565b92915050565b610edf81610c3c565b82525050565b6000602082019050610efa6000830184610ed6565b92915050565b6000610f0b82610c1c565b9050919050565b610f1b81610f00565b8114610f2657600080fd5b50565b600081359050610f3881610f12565b92915050565b600080fd5b600080fd5b7f4e487b7100000000000000000000000000000000000000000000000000000000600052604160045260246000fd5b610f8082610cbb565b810181811067ffffffffffffffff82111715610f9f57610f9e610f48565b5b80604052505050565b6000610fb2610e33565b9050610fbe8282610f77565b919050565b600067ffffffffffffffff821115610fde57610fdd610f48565b5b610fe782610cbb565b9050602081019050919050565b82818337600083830152505050565b600061101661101184610fc3565b610fa8565b90508281526020810184848401111561103257611031610f43565b5b61103d848285610ff4565b509392505050565b600082601f83011261105a57611059610f3e565b5b813561106a848260208601611003565b91505092915050565b60008060006060848603121561108c5761108b610e3d565b5b600061109a86828701610f29565b93505060206110ab86828701610e5e565b925050604084013567ffffffffffffffff8111156110cc576110cb610e42565b5b6110d886828701611045565b9150509250925092565b6110eb81610c3c565b81146110f657600080fd5b50565b600081359050611108816110e2565b92915050565b60006020828403121561112457611123610e3d565b5b6000611132848285016110f9565b91505092915050565b7f4e487b7100000000000000000000000000000000000000000000000000000000600052602260045260246000fd5b6000600282049050600182168061118257607f821691505b602082108114156111965761119561113b565b5b50919050565b600081905092915050565b50565b60006111b760008361119c565b91506111c2826111a7565b600082019050919050565b60006111d8826111aa565b9150819050919050565b600082825260208201905092915050565b7f5472616e73666572206661696c65642100000000000000000000000000000000600082015250565b60006112296010836111e2565b9150611234826111f3565b602082019050919050565b600060208201905081810360008301526112588161121c565b9050919050565b7f4e487b7100000000000000000000000000000000000000000000000000000000600052601160045260246000fd5b600061129982610bbc565b91506112a483610bbc565b9250827fffffffffffffffffffffffffffffffffffffffffffffffffffffffffffffffff038211156112d9576112d861125f565b5b828201905092915050565b6000819050919050565b60006113096113046112ff84610c1c565b6112e4565b610c1c565b9050919050565b600061131b826112ee565b9050919050565b600061132d82611310565b9050919050565b61133d81611322565b82525050565b600061134e82610c6c565b61135881856111e2565b9350611368818560208601610c88565b61137181610cbb565b840191505092915050565b600060a0820190506113916000830188610ed6565b61139e6020830187611334565b6113ab6040830186610bc6565b81810360608301526113bd8185611343565b90506113cc6080830184610bc6565b969550505050505056fea2646970667358221220fb7773f96a88fe4606b2b24547c4761325ad00d34331425443df0f7e34ba2ef364736f6c634300080a0033",
    "linkReferences": {},
    "deployedLinkReferences": {}
}