{
  "contractName": "ProfilePayments",
  "abi": [
    {
      "inputs": [],
      "stateMutability": "nonpayable",
      "type": "constructor"
    },
    {
      "inputs": [],
      "name": "OnlyOwner",
      "type": "error"
    },
    {
      "inputs": [
        {
          "internalType": "address",
          "name": "newOwner",
          "type": "address"
        }
      ],
      "name": "transferOwnership",
      "outputs": [],
      "stateMutability": "nonpayable",
      "type": "function"
    },
    {
      "inputs": [],
      "name": "getContractOwner",
      "outputs": [
        {
          "internalType": "address",
          "name": "",
          "type": "address"
        }
      ],
      "stateMutability": "view",
      "type": "function"
    }
  ],
  "bytecode": "0x608060405234801561001057600080fd5b506100203361002560201b60201c565b610068565b806000806101000a81548173ffffffffffffffffffffffffffffffffffffffff021916908373ffffffffffffffffffffffffffffffffffffffff16021790555050565b610249806100776000396000f3fe608060405234801561001057600080fd5b50600436106100365760003560e01c8063442890d51461003b578063f2fde38b14610059575b600080fd5b610043610075565b604051610050919061019a565b60405180910390f35b610073600480360381019061006e91906101e6565b61009e565b005b60008060009054906101000a900473ffffffffffffffffffffffffffffffffffffffff16905090565b6100a6610075565b73ffffffffffffffffffffffffffffffffffffffff163373ffffffffffffffffffffffffffffffffffffffff161461010a576040517f5fc483c500000000000000000000000000000000000000000000000000000000815260040160405180910390fd5b61011381610116565b50565b806000806101000a81548173ffffffffffffffffffffffffffffffffffffffff021916908373ffffffffffffffffffffffffffffffffffffffff16021790555050565b600073ffffffffffffffffffffffffffffffffffffffff82169050919050565b600061018482610159565b9050919050565b61019481610179565b82525050565b60006020820190506101af600083018461018b565b92915050565b600080fd5b6101c381610179565b81146101ce57600080fd5b50565b6000813590506101e0816101ba565b92915050565b6000602082840312156101fc576101fb6101b5565b5b600061020a848285016101d1565b9150509291505056fea264697066735822122020067b21353981a4fb1160bf99f00978c1592b9b17ec30501cde81bc688838ba64736f6c634300080a0033",
  "immutableReferences": {},
  "source": "// SPDX-License-Identifier:MIT\r\npragma solidity ^0.8.0;\r\n\r\ncontract ProfilePayments {\r\naddress payable private owner;\r\n\r\n   constructor(){\r\n       setContractOwner(msg.sender);\r\n   }\r\n\r\n///Only the contract owner has access.\r\n   error OnlyOwner();\r\n\r\n   modifier onlyOwner(){\r\n       if(msg.sender != getContractOwner()){\r\n        revert OnlyOwner();\r\n       }\r\n       _;\r\n   }\r\n\r\n   function transferOwnership(address newOwner) external onlyOwner {\r\n       setContractOwner(newOwner);\r\n   }\r\n\r\n   function getContractOwner() public view returns(address){\r\n   return owner;\r\n\r\n   }\r\n\r\n   function setContractOwner(address newOwner) private {\r\n       owner = payable(newOwner);    \r\n   }\r\n   \r\n}",
  "sourcePath": "C:\\Users\\bodiA\\Desktop\\dev_site_2022\\contracts\\ProfilePayments.sol",
  "compiler": {
    "name": "solc",
    "version": "0.8.10+commit.fc410830.Emscripten.clang"
  },
  "schemaVersion": "3.4.3",
  "updatedAt": "2022-01-18T00:58:53.824Z",
  "devdoc": {
    "kind": "dev",
    "methods": {},
    "version": 1
  },
  "userdoc": {
    "errors": {
      "OnlyOwner()": [
        {
          "notice": "Only the contract owner has access."
        }
      ]
    },
    "kind": "user",
    "methods": {},
    "version": 1
  }
}