{
  "contractName": "ProfilePayments",
  "abi": [
    {
      "inputs": [],
      "stateMutability": "nonpayable",
      "type": "constructor"
    },
    {
      "inputs": [],
      "name": "OnlyOwner",
      "type": "error"
    },
    {
      "stateMutability": "payable",
      "type": "fallback"
    },
    {
      "inputs": [],
      "name": "isStopped",
      "outputs": [
        {
          "internalType": "bool",
          "name": "",
          "type": "bool"
        }
      ],
      "stateMutability": "view",
      "type": "function"
    },
    {
      "stateMutability": "payable",
      "type": "receive"
    },
    {
      "inputs": [
        {
          "internalType": "uint256",
          "name": "amount",
          "type": "uint256"
        }
      ],
      "name": "withdraw",
      "outputs": [],
      "stateMutability": "nonpayable",
      "type": "function"
    },
    {
      "inputs": [],
      "name": "emergencyWithdraw",
      "outputs": [],
      "stateMutability": "nonpayable",
      "type": "function"
    },
    {
      "inputs": [],
      "name": "selfDestruct",
      "outputs": [],
      "stateMutability": "nonpayable",
      "type": "function"
    },
    {
      "inputs": [],
      "name": "stopContract",
      "outputs": [],
      "stateMutability": "nonpayable",
      "type": "function"
    },
    {
      "inputs": [],
      "name": "resumeContract",
      "outputs": [],
      "stateMutability": "nonpayable",
      "type": "function"
    },
    {
      "inputs": [
        {
          "internalType": "address",
          "name": "newOwner",
          "type": "address"
        }
      ],
      "name": "transferOwnership",
      "outputs": [],
      "stateMutability": "nonpayable",
      "type": "function"
    },
    {
      "inputs": [],
      "name": "getContractOwner",
      "outputs": [
        {
          "internalType": "address",
          "name": "",
          "type": "address"
        }
      ],
      "stateMutability": "view",
      "type": "function"
    },
    {
      "inputs": [],
      "name": "getBalance",
      "outputs": [
        {
          "internalType": "uint256",
          "name": "",
          "type": "uint256"
        }
      ],
      "stateMutability": "view",
      "type": "function"
    }
  ],
  "bytecode": "0x608060405260008060146101000a81548160ff02191690831515021790555034801561002a57600080fd5b5061003a3361003f60201b60201c565b610082565b806000806101000a81548173ffffffffffffffffffffffffffffffffffffffff021916908373ffffffffffffffffffffffffffffffffffffffff16021790555050565b610998806100916000396000f3fe60806040526004361061008a5760003560e01c8063442890d511610059578063442890d5146101295780639cb8a26a14610154578063c4bc5da51461016b578063db2e21bc14610182578063f2fde38b1461019957610091565b806312065fe01461009357806312253a6c146100be5780632e1a7d4d146100d55780633f683b6a146100fe57610091565b3661009157005b005b34801561009f57600080fd5b506100a86101c2565b6040516100b5919061073b565b60405180910390f35b3480156100ca57600080fd5b506100d36101ca565b005b3480156100e157600080fd5b506100fc60048036038101906100f79190610787565b610253565b005b34801561010a57600080fd5b50610113610390565b60405161012091906107cf565b60405180910390f35b34801561013557600080fd5b5061013e6103a3565b60405161014b919061082b565b60405180910390f35b34801561016057600080fd5b506101696103cc565b005b34801561017757600080fd5b5061018061048a565b005b34801561018e57600080fd5b50610197610512565b005b3480156101a557600080fd5b506101c060048036038101906101bb9190610872565b610667565b005b600047905090565b6101d26103a3565b73ffffffffffffffffffffffffffffffffffffffff163373ffffffffffffffffffffffffffffffffffffffff1614610236576040517f5fc483c500000000000000000000000000000000000000000000000000000000815260040160405180910390fd5b6001600060146101000a81548160ff021916908315150217905550565b61025b6103a3565b73ffffffffffffffffffffffffffffffffffffffff163373ffffffffffffffffffffffffffffffffffffffff16146102bf576040517f5fc483c500000000000000000000000000000000000000000000000000000000815260040160405180910390fd5b60008060009054906101000a900473ffffffffffffffffffffffffffffffffffffffff1673ffffffffffffffffffffffffffffffffffffffff1682604051610306906108d0565b60006040518083038185875af1925050503d8060008114610343576040519150601f19603f3d011682016040523d82523d6000602084013e610348565b606091505b505090508061038c576040517f08c379a000000000000000000000000000000000000000000000000000000000815260040161038390610942565b60405180910390fd5b5050565b600060149054906101000a900460ff1681565b60008060009054906101000a900473ffffffffffffffffffffffffffffffffffffffff16905090565b600060149054906101000a900460ff166103e557600080fd5b6103ed6103a3565b73ffffffffffffffffffffffffffffffffffffffff163373ffffffffffffffffffffffffffffffffffffffff1614610451576040517f5fc483c500000000000000000000000000000000000000000000000000000000815260040160405180910390fd5b60008054906101000a900473ffffffffffffffffffffffffffffffffffffffff1673ffffffffffffffffffffffffffffffffffffffff16ff5b6104926103a3565b73ffffffffffffffffffffffffffffffffffffffff163373ffffffffffffffffffffffffffffffffffffffff16146104f6576040517f5fc483c500000000000000000000000000000000000000000000000000000000815260040160405180910390fd5b60008060146101000a81548160ff021916908315150217905550565b61051a6103a3565b73ffffffffffffffffffffffffffffffffffffffff163373ffffffffffffffffffffffffffffffffffffffff161461057e576040517f5fc483c500000000000000000000000000000000000000000000000000000000815260040160405180910390fd5b600060149054906101000a900460ff1661059757600080fd5b60008060009054906101000a900473ffffffffffffffffffffffffffffffffffffffff1673ffffffffffffffffffffffffffffffffffffffff16476040516105de906108d0565b60006040518083038185875af1925050503d806000811461061b576040519150601f19603f3d011682016040523d82523d6000602084013e610620565b606091505b5050905080610664576040517f08c379a000000000000000000000000000000000000000000000000000000000815260040161065b90610942565b60405180910390fd5b50565b61066f6103a3565b73ffffffffffffffffffffffffffffffffffffffff163373ffffffffffffffffffffffffffffffffffffffff16146106d3576040517f5fc483c500000000000000000000000000000000000000000000000000000000815260040160405180910390fd5b6106dc816106df565b50565b806000806101000a81548173ffffffffffffffffffffffffffffffffffffffff021916908373ffffffffffffffffffffffffffffffffffffffff16021790555050565b6000819050919050565b61073581610722565b82525050565b6000602082019050610750600083018461072c565b92915050565b600080fd5b61076481610722565b811461076f57600080fd5b50565b6000813590506107818161075b565b92915050565b60006020828403121561079d5761079c610756565b5b60006107ab84828501610772565b91505092915050565b60008115159050919050565b6107c9816107b4565b82525050565b60006020820190506107e460008301846107c0565b92915050565b600073ffffffffffffffffffffffffffffffffffffffff82169050919050565b6000610815826107ea565b9050919050565b6108258161080a565b82525050565b6000602082019050610840600083018461081c565b92915050565b61084f8161080a565b811461085a57600080fd5b50565b60008135905061086c81610846565b92915050565b60006020828403121561088857610887610756565b5b60006108968482850161085d565b91505092915050565b600081905092915050565b50565b60006108ba60008361089f565b91506108c5826108aa565b600082019050919050565b60006108db826108ad565b9150819050919050565b600082825260208201905092915050565b7f5472616e73666572206661696c65642100000000000000000000000000000000600082015250565b600061092c6010836108e5565b9150610937826108f6565b602082019050919050565b6000602082019050818103600083015261095b8161091f565b905091905056fea2646970667358221220412d795c3817fc26ab84771a49000a3c4f0a9c076cf5984918ea16a23cb8e13764736f6c634300080a0033",
  "immutableReferences": {},
  "source": "// SPDX-License-Identifier:MIT\r\npragma solidity ^0.8.0;\r\n\r\ncontract ProfilePayments {\r\naddress payable private owner;\r\n\r\nbool public isStopped = false;\r\n\r\n   constructor(){\r\n       setContractOwner(msg.sender);\r\n   }\r\n\r\n///Only the contract owner has access.\r\n   error OnlyOwner();\r\n\r\n   modifier onlyOwner(){\r\n       if(msg.sender != getContractOwner()){\r\n        revert OnlyOwner();\r\n       }\r\n       _;\r\n   }\r\n\r\n   modifier onlyWhenNotStopped {\r\n       require(!isStopped);\r\n       _;\r\n   }\r\n\r\n   modifier onlyWhenStopped {\r\n       require(isStopped);\r\n       _;\r\n   }\r\n\r\n   receive() external payable {}\r\n\r\n   fallback() external payable {}\r\n\r\n   function withdraw(uint amount) external onlyOwner {\r\n     (bool success, )  = owner.call{value: amount}(\"\");\r\n     require(success, \"Transfer failed!\");\r\n   }\r\n\r\n   function emergencyWithdraw() external onlyOwner onlyWhenStopped {\r\n     (bool success, )  = owner.call{value: address(this).balance}(\"\");\r\n     require(success, \"Transfer failed!\");\r\n   }\r\n\r\n   function selfDestruct() external onlyWhenStopped onlyOwner {\r\n       selfdestruct(owner);\r\n   }\r\n\r\n\r\n   function stopContract() external onlyOwner {\r\n       isStopped = true;\r\n   }\r\n\r\n   function resumeContract() external onlyOwner {\r\n       isStopped = false;\r\n   }\r\n\r\n   function transferOwnership(address newOwner) external onlyOwner {\r\n       setContractOwner(newOwner);\r\n   }\r\n\r\n   function getContractOwner() public view returns(address){\r\n   return owner;\r\n\r\n   }\r\n\r\n   function setContractOwner(address newOwner) private {\r\n       owner = payable(newOwner);    \r\n   }\r\n\r\n   function getBalance() external view returns(uint){\r\n       return address(this).balance;\r\n   }\r\n\r\n\r\n   \r\n}",
  "sourcePath": "C:\\Users\\bodiA\\Desktop\\dev_site_2022\\contracts\\ProfilePayments.sol",
  "compiler": {
    "name": "solc",
    "version": "0.8.10+commit.fc410830.Emscripten.clang"
  },
  "schemaVersion": "3.4.3",
  "updatedAt": "2022-02-11T22:34:41.613Z",
  "devdoc": {
    "kind": "dev",
    "methods": {},
    "version": 1
  },
  "userdoc": {
    "errors": {
      "OnlyOwner()": [
        {
          "notice": "Only the contract owner has access."
        }
      ]
    },
    "kind": "user",
    "methods": {},
    "version": 1
  }
}