{
  "contractName": "ProfilePayments",
  "abi": [
    {
      "inputs": [],
      "stateMutability": "nonpayable",
      "type": "constructor"
    },
    {
      "inputs": [],
      "name": "OnlyOwner",
      "type": "error"
    },
    {
      "inputs": [
        {
          "internalType": "address",
          "name": "newOwner",
          "type": "address"
        }
      ],
      "name": "transferOwnership",
      "outputs": [],
      "stateMutability": "nonpayable",
      "type": "function"
    },
    {
      "inputs": [],
      "name": "getContractOwner",
      "outputs": [
        {
          "internalType": "address",
          "name": "",
          "type": "address"
        }
      ],
      "stateMutability": "view",
      "type": "function",
      "constant": true
    }
  ],
  "bytecode": "0x608060405234801561001057600080fd5b506100203361002560201b60201c565b610068565b806000806101000a81548173ffffffffffffffffffffffffffffffffffffffff021916908373ffffffffffffffffffffffffffffffffffffffff16021790555050565b610240806100776000396000f3fe608060405234801561001057600080fd5b50600436106100365760003560e01c8063442890d51461003b578063f2fde38b14610059575b600080fd5b610043610075565b60405161005091906101a6565b60405180910390f35b610073600480360381019061006e919061016e565b61009e565b005b60008060009054906101000a900473ffffffffffffffffffffffffffffffffffffffff16905090565b6100a6610075565b73ffffffffffffffffffffffffffffffffffffffff163373ffffffffffffffffffffffffffffffffffffffff161461010a576040517f5fc483c500000000000000000000000000000000000000000000000000000000815260040160405180910390fd5b61011381610116565b50565b806000806101000a81548173ffffffffffffffffffffffffffffffffffffffff021916908373ffffffffffffffffffffffffffffffffffffffff16021790555050565b600081359050610168816101f3565b92915050565b60006020828403121561018057600080fd5b600061018e84828501610159565b91505092915050565b6101a0816101c1565b82525050565b60006020820190506101bb6000830184610197565b92915050565b60006101cc826101d3565b9050919050565b600073ffffffffffffffffffffffffffffffffffffffff82169050919050565b6101fc816101c1565b811461020757600080fd5b5056fea2646970667358221220c42ca9dbd2201d6852b97dcae7f5aac190e6e0a85982e2695a185960d9b9e94a64736f6c63430008040033",
  "immutableReferences": {},
  "source": "// SPDX-License-Identifier:MIT\r\npragma solidity ^0.8.0;\r\n\r\ncontract ProfilePayments {\r\naddress payable private owner;\r\n\r\n   constructor(){\r\n       setContractOwner(msg.sender);\r\n   }\r\n\r\n///Only the contract owner has access.\r\n   error OnlyOwner();\r\n\r\n   modifier onlyOwner(){\r\n       if(msg.sender != getContractOwner()){\r\n        revert OnlyOwner();\r\n       }\r\n       _;\r\n   }\r\n\r\n   function transferOwnership(address newOwner) external onlyOwner {\r\n       setContractOwner(newOwner);\r\n   }\r\n\r\n   function getContractOwner() public view returns(address){\r\n   return owner;\r\n\r\n   }\r\n\r\n   function setContractOwner(address newOwner) private {\r\n       owner = payable(newOwner);    \r\n   }\r\n   \r\n}",
  "sourcePath": "C:\\Users\\bodiA\\Desktop\\dev_site_2022\\contracts\\ProfilePayments.sol",
  "compiler": {
    "name": "solc",
    "version": "0.8.4+commit.c7e474f2.Emscripten.clang"
  },
  "schemaVersion": "3.4.3",
  "updatedAt": "2022-01-18T20:11:44.013Z",
  "networkType": "ethereum",
  "devdoc": {
    "kind": "dev",
    "methods": {},
    "version": 1
  },
  "userdoc": {
    "errors": {
      "OnlyOwner()": [
        {
          "notice": "Only the contract owner has access."
        }
      ]
    },
    "kind": "user",
    "methods": {},
    "version": 1
  }
}