{
  "contractName": "ProfilePayments",
  "abi": [
    {
      "inputs": [],
      "stateMutability": "nonpayable",
      "type": "constructor"
    },
    {
      "inputs": [],
      "name": "OnlyOwner",
      "type": "error"
    },
    {
      "inputs": [],
      "name": "isStopped",
      "outputs": [
        {
          "internalType": "bool",
          "name": "",
          "type": "bool"
        }
      ],
      "stateMutability": "view",
      "type": "function"
    },
    {
      "stateMutability": "payable",
      "type": "receive"
    },
    {
      "inputs": [
        {
          "internalType": "uint256",
          "name": "amount",
          "type": "uint256"
        }
      ],
      "name": "withdraw",
      "outputs": [],
      "stateMutability": "nonpayable",
      "type": "function"
    },
    {
      "inputs": [],
      "name": "emergencyWithdraw",
      "outputs": [],
      "stateMutability": "nonpayable",
      "type": "function"
    },
    {
      "inputs": [],
      "name": "selfDestruct",
      "outputs": [],
      "stateMutability": "nonpayable",
      "type": "function"
    },
    {
      "inputs": [],
      "name": "stopContract",
      "outputs": [],
      "stateMutability": "nonpayable",
      "type": "function"
    },
    {
      "inputs": [],
      "name": "resumeContract",
      "outputs": [],
      "stateMutability": "nonpayable",
      "type": "function"
    },
    {
      "inputs": [
        {
          "internalType": "address",
          "name": "newOwner",
          "type": "address"
        }
      ],
      "name": "transferOwnership",
      "outputs": [],
      "stateMutability": "nonpayable",
      "type": "function"
    },
    {
      "inputs": [],
      "name": "getContractOwner",
      "outputs": [
        {
          "internalType": "address",
          "name": "",
          "type": "address"
        }
      ],
      "stateMutability": "view",
      "type": "function"
    },
    {
      "inputs": [],
      "name": "getBalance",
      "outputs": [
        {
          "internalType": "uint256",
          "name": "",
          "type": "uint256"
        }
      ],
      "stateMutability": "view",
      "type": "function"
    }
  ],
  "bytecode": "0x608060405260008060146101000a81548160ff02191690831515021790555034801561002a57600080fd5b5061003a3361003f60201b60201c565b610082565b806000806101000a81548173ffffffffffffffffffffffffffffffffffffffff021916908373ffffffffffffffffffffffffffffffffffffffff16021790555050565b61099b806100916000396000f3fe60806040526004361061008a5760003560e01c8063442890d511610059578063442890d51461012c5780639cb8a26a14610157578063c4bc5da51461016e578063db2e21bc14610185578063f2fde38b1461019c57610091565b806312065fe01461009657806312253a6c146100c15780632e1a7d4d146100d85780633f683b6a1461010157610091565b3661009157005b600080fd5b3480156100a257600080fd5b506100ab6101c5565b6040516100b8919061073e565b60405180910390f35b3480156100cd57600080fd5b506100d66101cd565b005b3480156100e457600080fd5b506100ff60048036038101906100fa919061078a565b610256565b005b34801561010d57600080fd5b50610116610393565b60405161012391906107d2565b60405180910390f35b34801561013857600080fd5b506101416103a6565b60405161014e919061082e565b60405180910390f35b34801561016357600080fd5b5061016c6103cf565b005b34801561017a57600080fd5b5061018361048d565b005b34801561019157600080fd5b5061019a610515565b005b3480156101a857600080fd5b506101c360048036038101906101be9190610875565b61066a565b005b600047905090565b6101d56103a6565b73ffffffffffffffffffffffffffffffffffffffff163373ffffffffffffffffffffffffffffffffffffffff1614610239576040517f5fc483c500000000000000000000000000000000000000000000000000000000815260040160405180910390fd5b6001600060146101000a81548160ff021916908315150217905550565b61025e6103a6565b73ffffffffffffffffffffffffffffffffffffffff163373ffffffffffffffffffffffffffffffffffffffff16146102c2576040517f5fc483c500000000000000000000000000000000000000000000000000000000815260040160405180910390fd5b60008060009054906101000a900473ffffffffffffffffffffffffffffffffffffffff1673ffffffffffffffffffffffffffffffffffffffff1682604051610309906108d3565b60006040518083038185875af1925050503d8060008114610346576040519150601f19603f3d011682016040523d82523d6000602084013e61034b565b606091505b505090508061038f576040517f08c379a000000000000000000000000000000000000000000000000000000000815260040161038690610945565b60405180910390fd5b5050565b600060149054906101000a900460ff1681565b60008060009054906101000a900473ffffffffffffffffffffffffffffffffffffffff16905090565b600060149054906101000a900460ff166103e857600080fd5b6103f06103a6565b73ffffffffffffffffffffffffffffffffffffffff163373ffffffffffffffffffffffffffffffffffffffff1614610454576040517f5fc483c500000000000000000000000000000000000000000000000000000000815260040160405180910390fd5b60008054906101000a900473ffffffffffffffffffffffffffffffffffffffff1673ffffffffffffffffffffffffffffffffffffffff16ff5b6104956103a6565b73ffffffffffffffffffffffffffffffffffffffff163373ffffffffffffffffffffffffffffffffffffffff16146104f9576040517f5fc483c500000000000000000000000000000000000000000000000000000000815260040160405180910390fd5b60008060146101000a81548160ff021916908315150217905550565b61051d6103a6565b73ffffffffffffffffffffffffffffffffffffffff163373ffffffffffffffffffffffffffffffffffffffff1614610581576040517f5fc483c500000000000000000000000000000000000000000000000000000000815260040160405180910390fd5b600060149054906101000a900460ff1661059a57600080fd5b60008060009054906101000a900473ffffffffffffffffffffffffffffffffffffffff1673ffffffffffffffffffffffffffffffffffffffff16476040516105e1906108d3565b60006040518083038185875af1925050503d806000811461061e576040519150601f19603f3d011682016040523d82523d6000602084013e610623565b606091505b5050905080610667576040517f08c379a000000000000000000000000000000000000000000000000000000000815260040161065e90610945565b60405180910390fd5b50565b6106726103a6565b73ffffffffffffffffffffffffffffffffffffffff163373ffffffffffffffffffffffffffffffffffffffff16146106d6576040517f5fc483c500000000000000000000000000000000000000000000000000000000815260040160405180910390fd5b6106df816106e2565b50565b806000806101000a81548173ffffffffffffffffffffffffffffffffffffffff021916908373ffffffffffffffffffffffffffffffffffffffff16021790555050565b6000819050919050565b61073881610725565b82525050565b6000602082019050610753600083018461072f565b92915050565b600080fd5b61076781610725565b811461077257600080fd5b50565b6000813590506107848161075e565b92915050565b6000602082840312156107a05761079f610759565b5b60006107ae84828501610775565b91505092915050565b60008115159050919050565b6107cc816107b7565b82525050565b60006020820190506107e760008301846107c3565b92915050565b600073ffffffffffffffffffffffffffffffffffffffff82169050919050565b6000610818826107ed565b9050919050565b6108288161080d565b82525050565b6000602082019050610843600083018461081f565b92915050565b6108528161080d565b811461085d57600080fd5b50565b60008135905061086f81610849565b92915050565b60006020828403121561088b5761088a610759565b5b600061089984828501610860565b91505092915050565b600081905092915050565b50565b60006108bd6000836108a2565b91506108c8826108ad565b600082019050919050565b60006108de826108b0565b9150819050919050565b600082825260208201905092915050565b7f5472616e73666572206661696c65642100000000000000000000000000000000600082015250565b600061092f6010836108e8565b915061093a826108f9565b602082019050919050565b6000602082019050818103600083015261095e81610922565b905091905056fea2646970667358221220e141a6928724fb4d9b345bba9b2d4ce4674fa0a4ffe7402dceea5d10f28eb43b64736f6c634300080a0033",
  "immutableReferences": {},
  "source": "// SPDX-License-Identifier:MIT\r\npragma solidity ^0.8.0;\r\n\r\ncontract ProfilePayments {\r\naddress payable private owner;\r\n\r\nbool public isStopped = false;\r\n\r\n   constructor(){\r\n       setContractOwner(msg.sender);\r\n   }\r\n\r\n///Only the contract owner has access.\r\n   error OnlyOwner();\r\n\r\n   modifier onlyOwner(){\r\n       if(msg.sender != getContractOwner()){\r\n        revert OnlyOwner();\r\n       }\r\n       _;\r\n   }\r\n\r\n   modifier onlyWhenNotStopped {\r\n       require(!isStopped);\r\n       _;\r\n   }\r\n\r\n   modifier onlyWhenStopped {\r\n       require(isStopped);\r\n       _;\r\n   }\r\n\r\n   receive() external payable {}\r\n\r\n   function withdraw(uint amount) external onlyOwner {\r\n     (bool success, )  = owner.call{value: amount}(\"\");\r\n     require(success, \"Transfer failed!\");\r\n   }\r\n\r\n   function emergencyWithdraw() external onlyOwner onlyWhenStopped {\r\n     (bool success, )  = owner.call{value: address(this).balance}(\"\");\r\n     require(success, \"Transfer failed!\");\r\n   }\r\n\r\n   function selfDestruct() external onlyWhenStopped onlyOwner {\r\n       selfdestruct(owner);\r\n   }\r\n\r\n\r\n   function stopContract() external onlyOwner {\r\n       isStopped = true;\r\n   }\r\n\r\n   function resumeContract() external onlyOwner {\r\n       isStopped = false;\r\n   }\r\n\r\n   function transferOwnership(address newOwner) external onlyOwner {\r\n       setContractOwner(newOwner);\r\n   }\r\n\r\n   function getContractOwner() public view returns(address){\r\n   return owner;\r\n\r\n   }\r\n\r\n   function setContractOwner(address newOwner) private {\r\n       owner = payable(newOwner);    \r\n   }\r\n\r\n   function getBalance() external view returns(uint){\r\n       return address(this).balance;\r\n   }\r\n\r\n\r\n   \r\n}",
  "sourcePath": "C:\\Users\\bodiA\\Desktop\\dev_site_2022\\contracts\\ProfilePayments.sol",
  "compiler": {
    "name": "solc",
    "version": "0.8.10+commit.fc410830.Emscripten.clang"
  },
  "schemaVersion": "3.4.3",
  "updatedAt": "2022-01-19T17:26:13.987Z",
  "devdoc": {
    "kind": "dev",
    "methods": {},
    "version": 1
  },
  "userdoc": {
    "errors": {
      "OnlyOwner()": [
        {
          "notice": "Only the contract owner has access."
        }
      ]
    },
    "kind": "user",
    "methods": {},
    "version": 1
  }
}