{
  "contractName": "ProfilePayments",
  "abi": [
    {
      "inputs": [],
      "stateMutability": "nonpayable",
      "type": "constructor"
    },
    {
      "inputs": [],
      "name": "OnlyOwner",
      "type": "error"
    },
    {
      "inputs": [],
      "name": "isStopped",
      "outputs": [
        {
          "internalType": "bool",
          "name": "",
          "type": "bool"
        }
      ],
      "stateMutability": "view",
      "type": "function",
      "constant": true
    },
    {
      "stateMutability": "payable",
      "type": "receive",
      "payable": true
    },
    {
      "inputs": [
        {
          "internalType": "uint256",
          "name": "amount",
          "type": "uint256"
        }
      ],
      "name": "withdraw",
      "outputs": [],
      "stateMutability": "nonpayable",
      "type": "function"
    },
    {
      "inputs": [],
      "name": "emergencyWithdraw",
      "outputs": [],
      "stateMutability": "nonpayable",
      "type": "function"
    },
    {
      "inputs": [],
      "name": "selfDestruct",
      "outputs": [],
      "stateMutability": "nonpayable",
      "type": "function"
    },
    {
      "inputs": [],
      "name": "stopContract",
      "outputs": [],
      "stateMutability": "nonpayable",
      "type": "function"
    },
    {
      "inputs": [],
      "name": "resumeContract",
      "outputs": [],
      "stateMutability": "nonpayable",
      "type": "function"
    },
    {
      "inputs": [
        {
          "internalType": "address",
          "name": "newOwner",
          "type": "address"
        }
      ],
      "name": "transferOwnership",
      "outputs": [],
      "stateMutability": "nonpayable",
      "type": "function"
    },
    {
      "inputs": [],
      "name": "getContractOwner",
      "outputs": [
        {
          "internalType": "address",
          "name": "",
          "type": "address"
        }
      ],
      "stateMutability": "view",
      "type": "function",
      "constant": true
    }
  ],
  "bytecode": "0x608060405260008060146101000a81548160ff02191690831515021790555034801561002a57600080fd5b5061003a3361003f60201b60201c565b610082565b806000806101000a81548173ffffffffffffffffffffffffffffffffffffffff021916908373ffffffffffffffffffffffffffffffffffffffff16021790555050565b610926806100916000396000f3fe60806040526004361061007f5760003560e01c80639cb8a26a1161004e5780639cb8a26a14610121578063c4bc5da514610138578063db2e21bc1461014f578063f2fde38b1461016657610086565b806312253a6c1461008b5780632e1a7d4d146100a25780633f683b6a146100cb578063442890d5146100f657610086565b3661008657005b600080fd5b34801561009757600080fd5b506100a061018f565b005b3480156100ae57600080fd5b506100c960048036038101906100c4919061073a565b610218565b005b3480156100d757600080fd5b506100e0610355565b6040516100ed91906107f7565b60405180910390f35b34801561010257600080fd5b5061010b610368565b60405161011891906107dc565b60405180910390f35b34801561012d57600080fd5b50610136610391565b005b34801561014457600080fd5b5061014d61044f565b005b34801561015b57600080fd5b506101646104d7565b005b34801561017257600080fd5b5061018d60048036038101906101889190610711565b61062c565b005b610197610368565b73ffffffffffffffffffffffffffffffffffffffff163373ffffffffffffffffffffffffffffffffffffffff16146101fb576040517f5fc483c500000000000000000000000000000000000000000000000000000000815260040160405180910390fd5b6001600060146101000a81548160ff021916908315150217905550565b610220610368565b73ffffffffffffffffffffffffffffffffffffffff163373ffffffffffffffffffffffffffffffffffffffff1614610284576040517f5fc483c500000000000000000000000000000000000000000000000000000000815260040160405180910390fd5b60008060009054906101000a900473ffffffffffffffffffffffffffffffffffffffff1673ffffffffffffffffffffffffffffffffffffffff16826040516102cb906107c7565b60006040518083038185875af1925050503d8060008114610308576040519150601f19603f3d011682016040523d82523d6000602084013e61030d565b606091505b5050905080610351576040517f08c379a000000000000000000000000000000000000000000000000000000000815260040161034890610812565b60405180910390fd5b5050565b600060149054906101000a900460ff1681565b60008060009054906101000a900473ffffffffffffffffffffffffffffffffffffffff16905090565b600060149054906101000a900460ff166103aa57600080fd5b6103b2610368565b73ffffffffffffffffffffffffffffffffffffffff163373ffffffffffffffffffffffffffffffffffffffff1614610416576040517f5fc483c500000000000000000000000000000000000000000000000000000000815260040160405180910390fd5b60008054906101000a900473ffffffffffffffffffffffffffffffffffffffff1673ffffffffffffffffffffffffffffffffffffffff16ff5b610457610368565b73ffffffffffffffffffffffffffffffffffffffff163373ffffffffffffffffffffffffffffffffffffffff16146104bb576040517f5fc483c500000000000000000000000000000000000000000000000000000000815260040160405180910390fd5b60008060146101000a81548160ff021916908315150217905550565b6104df610368565b73ffffffffffffffffffffffffffffffffffffffff163373ffffffffffffffffffffffffffffffffffffffff1614610543576040517f5fc483c500000000000000000000000000000000000000000000000000000000815260040160405180910390fd5b600060149054906101000a900460ff1661055c57600080fd5b60008060009054906101000a900473ffffffffffffffffffffffffffffffffffffffff1673ffffffffffffffffffffffffffffffffffffffff16476040516105a3906107c7565b60006040518083038185875af1925050503d80600081146105e0576040519150601f19603f3d011682016040523d82523d6000602084013e6105e5565b606091505b5050905080610629576040517f08c379a000000000000000000000000000000000000000000000000000000000815260040161062090610812565b60405180910390fd5b50565b610634610368565b73ffffffffffffffffffffffffffffffffffffffff163373ffffffffffffffffffffffffffffffffffffffff1614610698576040517f5fc483c500000000000000000000000000000000000000000000000000000000815260040160405180910390fd5b6106a1816106a4565b50565b806000806101000a81548173ffffffffffffffffffffffffffffffffffffffff021916908373ffffffffffffffffffffffffffffffffffffffff16021790555050565b6000813590506106f6816108c2565b92915050565b60008135905061070b816108d9565b92915050565b60006020828403121561072357600080fd5b6000610731848285016106e7565b91505092915050565b60006020828403121561074c57600080fd5b600061075a848285016106fc565b91505092915050565b61076c8161084e565b82525050565b61077b81610860565b82525050565b600061078e60108361083d565b915061079982610896565b602082019050919050565b60006107b1600083610832565b91506107bc826108bf565b600082019050919050565b60006107d2826107a4565b9150819050919050565b60006020820190506107f16000830184610763565b92915050565b600060208201905061080c6000830184610772565b92915050565b6000602082019050818103600083015261082b81610781565b9050919050565b600081905092915050565b600082825260208201905092915050565b60006108598261086c565b9050919050565b60008115159050919050565b600073ffffffffffffffffffffffffffffffffffffffff82169050919050565b6000819050919050565b7f5472616e73666572206661696c65642100000000000000000000000000000000600082015250565b50565b6108cb8161084e565b81146108d657600080fd5b50565b6108e28161088c565b81146108ed57600080fd5b5056fea264697066735822122009731854c9a768e2d80a27c3f948c94208131c60397df3780313a9dbf9984b0064736f6c63430008040033",
  "immutableReferences": {},
  "source": "// SPDX-License-Identifier:MIT\r\npragma solidity ^0.8.0;\r\n\r\ncontract ProfilePayments {\r\naddress payable private owner;\r\n\r\nbool public isStopped = false;\r\n\r\n   constructor(){\r\n       setContractOwner(msg.sender);\r\n   }\r\n\r\n///Only the contract owner has access.\r\n   error OnlyOwner();\r\n\r\n   modifier onlyOwner(){\r\n       if(msg.sender != getContractOwner()){\r\n        revert OnlyOwner();\r\n       }\r\n       _;\r\n   }\r\n\r\n   modifier onlyWhenNotStopped {\r\n       require(!isStopped);\r\n       _;\r\n   }\r\n\r\n   modifier onlyWhenStopped {\r\n       require(isStopped);\r\n       _;\r\n   }\r\n\r\n   receive() external payable {}\r\n\r\n   function withdraw(uint amount) external onlyOwner {\r\n     (bool success, )  = owner.call{value: amount}(\"\");\r\n     require(success, \"Transfer failed!\");\r\n   }\r\n\r\n   function emergencyWithdraw() external onlyOwner onlyWhenStopped {\r\n     (bool success, )  = owner.call{value: address(this).balance}(\"\");\r\n     require(success, \"Transfer failed!\");\r\n   }\r\n\r\n   function selfDestruct() external onlyWhenStopped onlyOwner {\r\n       selfdestruct(owner);\r\n   }\r\n\r\n\r\n   function stopContract() external onlyOwner {\r\n       isStopped = true;\r\n   }\r\n\r\n   function resumeContract() external onlyOwner {\r\n       isStopped = false;\r\n   }\r\n\r\n   function transferOwnership(address newOwner) external onlyOwner {\r\n       setContractOwner(newOwner);\r\n   }\r\n\r\n   function getContractOwner() public view returns(address){\r\n   return owner;\r\n\r\n   }\r\n\r\n   function setContractOwner(address newOwner) private {\r\n       owner = payable(newOwner);    \r\n   }\r\n   \r\n}",
  "sourcePath": "C:\\Users\\bodiA\\Desktop\\dev_site_2022\\contracts\\ProfilePayments.sol",
  "compiler": {
    "name": "solc",
    "version": "0.8.4+commit.c7e474f2.Emscripten.clang"
  },
  "schemaVersion": "3.4.3",
  "updatedAt": "2022-01-18T22:06:03.446Z",
  "networkType": "ethereum",
  "devdoc": {
    "kind": "dev",
    "methods": {},
    "version": 1
  },
  "userdoc": {
    "errors": {
      "OnlyOwner()": [
        {
          "notice": "Only the contract owner has access."
        }
      ]
    },
    "kind": "user",
    "methods": {},
    "version": 1
  }
}